:020000020000FC
:100000000C943E000C9428000C9429000C942A00B7
:100010000C942B000C942C000C942D000C942E00AE
:100020000C942F000C9430000C943B000C94310085
:100030000C9432000C9433000C9434000C94350072
:100040000C9436000C9437000C9438000C94390052
:100050001895189518951895189518951895189538
:100060001895189518951895189518951895189528
:10007000189518951895413081F018950FE50DBF2A
:1000800008E00EBF00240FEF102E17BA0E944D009B
:100090000E9464000E946F00F9CF41E014BA15BAC3
:1000A00000000000000000000000000005BA04BAD3
:1000B00002E009BF789402E103BF04E60CBF00C070
:1000C00005B3001509F4FCCF42E004BA05BA0000FC
:1000D00015BA05BA14BA23B30C946F00F6CF0C947A
:1000E000730038BB0895089508950F931F930F92DE
:1000F0000024002711270A950011FDCF00271A952B
:0C0100001011F9CF0F901F910F9108957E
:00000001FF
